:020000020000FC
:0200000050C1ED
:02003000FAC014
:0200280035C1E0
:02000400CFC06B
:02000800E1C055
:100060003090008037FCFCCF03D0009300800895CF
:1000700000D0000008952D3069F12A30A9F10091D7
:10008000008007FDFCCFF4DF209300C0089501E05D
:10009000E7CF02E0E5CF00E1E3CF04E1E1CF08E103
:1000A000DFCF0CE1DDCF0DE0DBCF0CE0D9CF0EE0F0
:1000B000D7CF0CE0D5CF05B7006C05BF01E0D0DF8E
:1000C00006E0CEDF0CE0CCDF08E3CADF0895022FA4
:1000D0000068C6CF0091008007FDFCCF0074006867
:1000E000C7DF0093008008952F9320E4F0DF2F9165
:1000F0000895FF91EF91EE1FFF1FC89531960020E4
:1001000019F0202DB8DFF9CFF795E795EF93FF931E
:10011000089503E007BBF894C09A2EE80E94B5004A
:1001200020E00E94B500C0987894F894C09A21E825
:100130000E94B5000E94C500C09878942F77022FC6
:10014000F894C09A20E80E94B500202F0E94B500C4
:10015000C0987894F894C09A20E90E94B50026EAE5
:100160000E94B500C09878940895BA9A089427958B
:1001700008F4C29A08F0C298C19A0000000000007A
:10018000C1988894213099F70895BA9820E8C19AC7
:10019000B2990894B29B889400000000C1982795FA
:1001A000B0F708951FB6102F20B22094022D2926F3
:1001B000902F202241F020FE06C02EB401E0202620
:1001C0002EBC04E0A026012F1FBE18951FB61F925B
:1001D0000F933F9201E009BF789430B23094032D21
:1001E0003926902F3022B9F031FE15C0A2FE11C081
:1001F0000EE1B01680F4B3943B2CC0E6D0E0330C93
:10020000330CC30D08F4D395C992D992E992F992AF
:1002100002C0BB2472D0F89403E009BF3F900F9155
:100220001F901FBE18951FB6102F0C2D0F70093090
:100230000C2D08F00A5F03950A3908F000E0C02E83
:10024000CC2029F50D2D0F7009300D2D08F00A5F17
:1002500003950A3508F000E0D02EDD20C1F40E2D04
:100260000F7009300E2D08F00A5F03950A3508F06B
:1002700000E0E02EEE2059F40F2D0F7009300F2D05
:1002800008F00A5F03950A3908F000E0F02E012F0C
:100290001FBE18951FB623B014E0212623B81FBE39
:1002A00018950FEF0DBF0FE00EBFAA240E94890022
:1002B0000E945B000E947D010E9466010E94720103
:1002C00000E107BF7894129A0C9487028824F8946E
:1002D000C09A25E80E94B5000E94C500C098789495
:1002E000922E089500E00FBD08E00EBD0CE90BBD95
:1002F00000E40ABD02E005BD0895BB24CC24DD2442
:10030000EE24FF240895052D0F700930052D08F007
:100310000A5F03950A3508F000E0502E0895052D78
:100320000F700130052D0CF406500A9500300CF4C6
:1003300009E5502E0895042D0F700930042D08F0A2
:100340000A5F03950A3508F000E0402E0895042D59
:100350000F700130042D0CF406500A9500300CF497
:1003600009E5402E0895082D0F700930082D08F07A
:100370000A5F03950A3508F000E0802E0895082DE5
:100380000F700130082D0CF406500A9500300CF463
:1003900009E5802E0895052D0F700930052D08F010
:1003A0000A5F0395023308F001E0502E0895052DF1
:1003B0000F700130052D0CF406500A9501300CF435
:1003C00001E3502E0895062D0F700930062D08F018
:1003D0000A5F0395033108F001E0602E0895062DB1
:1003E0000F700130062D0CF406500A9501300CF404
:1003F00002E1602E0895072D0F700930072D08F0D7
:100400000A5F03950A3908F000E0702E0895072D61
:100410000F700130072D0CF406500A9500300CF4D3
:1004200009E9702E0895042D0F700930042D08F08D
:100430000A5F0395083008F001E0402E0895442734
:1004400097FE05C04FEF292D0E94C906922E092D57
:100450000F700930092D08F00A5F0395043208F087
:1004600000E0902E40FF0895292D0E94C906922E8B
:100470000895442797FE05C04FEF292D0E94C90615
:10048000922E092D0F700130092D0CF406500A959B
:1004900000300CF403E2902E40FF0895292D0E94B5
:1004A000C906922E0895442767FE05C04FEF262DFA
:1004B0000E94C906622E062D0F700930062D08F025
:1004C0000A5F0395043208F000E0602E40FF0895B3
:1004D000262D0E94C906622E0895442767FE05C096
:1004E0004FEF262D0E94C906622E062D0F70013097
:1004F000062D0CF406500A9500300CF403E2602E31
:1005000040FF0895262D0E94C906622E08950E947C
:1005100047000E9449000E9455060E9474000E94F4
:10052000ED05A0FC05C0E5DD204F6666000005C0B6
:10053000E0DD20204F6E0000E8D10EE1302E01E01A
:100540000F933F9200E3302E06E03A94F1F73A948D
:100550000A95D9F73F900F913A9491F70A9581F750
:1005600000B20094002D0926902F002281F200FC99
:100570000BC001FC0E94AD0601E002FCA02605FCB8
:100580004EC106FC16C1C3CFF894C09A25E80E945C
:10059000B5000E94C500C0987894622EF894C09A65
:1005A00023E80E94B5000E94C500C0987894422EAE
:1005B000F894C09A21E80E94B5000E94C500C09836
:1005C0007894522E0E9447000E9449000E947306B0
:1005D0000E9474000E947900682B2F2D6D2B2F2D07
:1005E000732B2F2D3234647400000EE1302E01E0A5
:1005F0000F933F9200E3302E06E03A94F1F73A94DD
:100600000A95D9F73F900F913A9491F70A9581F79F
:1006100000B20094002D0926902F002299F201FCCF
:100620000E94AD0602FC0E948F0103FC0E94830120
:1006300004FC0E94A70105FC0E949B0106FC0E948D
:100640006D0207FC0E94530200FEBCCFF894C09AD2
:1006500024E80E94B500262D0E94B500C098789429
:10066000F894C09A22E80E94B500242D0E94B5009B
:10067000C0987894F894C09A20E80E94B500252D7F
:100680000E94B500C0987894F894C09A2BE80E9414
:10069000B5000E94C500C0987894422EF894C09A84
:1006A00027E80E94B5000E94C500C0987894522E99
:1006B000F894C09A29E80E94B5000E94C500C0982D
:1006C0007894622EF894C09A2DE80E94B5000E949A
:1006D000C500C0987894722E0E9447000E9449007D
:1006E0000E9415060E9474000E947900642B2F2D31
:1006F0006D2B2F2D792B2F2D6477636B00000EE16E
:10070000302E01E00F933F9200E3302E06E03A9442
:10071000F1F73A940A95D9F73F900F913A9491F7EF
:100720000A9581F700B20094002D0926902F00222F
:1007300099F201FC0E94130202FC0E94070203FCD2
:100740000E94FB0104FC0E94EF0105FC0E94E301F2
:1007500006FC0E94D70107FC0E94CB0100FEBCCF23
:10076000F894C09A2AE80E94B500242D0E94B50092
:10077000C0987894F894C09A26E80E94B500252D78
:100780000E94B500C0987894F894C09A28E80E9416
:10079000B500262D0E94B500C0987894F894C09AB0
:1007A0002CE80E94B500272D0E94B500C0987894CF
:1007B000AECE03E009BF0E9447000E9449000E949C
:1007C00086050E9474000E94A1050EE1302E01E012
:1007D0000F933F9200E3302E06E03A94F1F73A94FB
:1007E0000A95D9F73F900F913A9491F70A9581F7BE
:1007F00000B20094002D0926902F0022E1F207FCA0
:1008000009C005FC0AC002FC0E94750503FC0E9499
:100810006105D1CF00E009BF7ACE00E009BF0E9498
:1008200047000E9449000E945A04A1FE05C00E9490
:1008300079002067616D65000E9474000E94790054
:1008400020682B2F2D6D2B2F2D203132346A6575AA
:1008500000000EE1302E01E00F933F9200E3302EB6
:1008600006E03A94F1F73A940A95D9F73F900F9140
:100870003A9491F70A9581F700B20094002D092669
:10088000902F002261F202E000FCA02601FC0E94F1
:10089000AD0602FC0E94BF0103FC0E94B30104FCF0
:1008A0000E94390205FC0E941F0206FC82CF07FC51
:1008B0002ECEB5CF292D322F2295237097FC217093
:1008C000205D0E943B003F7020E3230F0E943B000D
:1008D0002AE30E943B00282D322F22952770205DAD
:1008E0000E943B003F7020E3230F0E943B0097FED5
:1008F000089520E20E943B0021E495FC20E50E943F
:100900003B002DE40E943B000895F894C09A25E82E
:100910000E94B5000E94C500C0987894622EF89499
:10092000C09A23E80E94B5000E94C500C098789440
:10093000422EF894C09A21E80E94B5000E94C5009A
:10094000C0987894522EA0FA56F4552041F46910BC
:1009500006C0481004C08827772741E001D00895D9
:1009600007B7006407BF0E9447000E944900A1FC2E
:1009700014C00E9479002020202020414C41524D7B
:100980002121210000B20094002D0926902F002281
:10099000C9F307B70F7B07BF08954395483009F4A3
:1009A0004427839504E0302E01E00F933F9200E34B
:1009B000302E06E03A94F1F73A940A95D9F73F9031
:1009C0000F913A9491F70A9581F78F3F01F50E94B4
:1009D00047000E9449008DDB5472792041676169AC
:1009E0006E0008EE302E04E00F933F9200E3302EAD
:1009F00006E03A94F1F73A940A95D9F73F900F91AF
:100A00003A9491F70A9581F7882777276894703090
:100A1000A1F49EF4542F61E00E9447000E94490017
:100A200068DB507265737320427574746F6E2000BA
:100A300020E3250F0E943B00E8947130A1F49EF45E
:100A4000542F61E00E9447000E94490052DB50721F
:100A500065737320427574746F6E200020E3250F58
:100A60000E943B00E8947230A1F49EF4542F61E0A0
:100A70000E9447000E9449003CDB5072657373205E
:100A8000427574746F6E200020E3250F0E943B00B6
:100A9000E894552319F0660F5A95FBCF00B20094E5
:100AA000002D0926902F002259F0061619F473958F
:100AB00088276894733021F407B70F7B07BF089528
:100AC0006CCF8894D795C7958894D795C795699723
:100AD000CB1544F46A968894CC1FDD1F8894CC1FF4
:100AE000DD1F0895C8E6D0E008958894D795C7958E
:100AF0008894D795C795CB3108F4CB0DCA958894C7
:100B0000CC1FDD1F8894CC1FDD1F08954A905A909A
:100B10006A907A902496BB2099F017D020E2ABDA45
:100B20003C2F889437953795395120E33A3018F0A7
:100B300023953A50FBCF9FDA232F2F70205D9BDA4D
:100B400008954F2C5E2C6D2C7C2C242D322F229559
:100B50002F70205D0E943B003F7020E3230F0E9416
:100B60003B002AE30E943B00252D322F229527705F
:100B7000205D0E943B003F7020E3230F0E943B005A
:100B80002AE30E943B00262D322F22952770205DFC
:100B90000E943B003F7020E3230F0E943B002AE3AA
:100BA0000E943B00272D322F22952F70205D0E943E
:100BB0003B003F7020E3230F0E943B0008954D4F00
:100BC0004E00545545005745440054485500465280
:100BD00049005341540053554E00F894C09A2BE8F5
:100BE0000E94B5000E94C500C0987894422EF894E7
:100BF000C09A27E80E94B5000E94C500C09878946A
:100C0000522EF894C09A29E80E94B5000E94C500AF
:100C1000C0987894622EF894C09A2DE80E94B5008E
:100C20000E94C500C0987894722E242D2770220F40
:100C3000220FEAEBFBE0E20F2227F21F32E0C89519
:100C4000202D0E943B00E3953A95CCF720E20E94CC
:100C50003B00252D252D322F22952370205D0E94EB
:100C60003B003F7020E3230F0E943B002EE20E94D6
:100C70003B00262D322F22952170205D0E943B00E3
:100C80003F7020E3230F0E943B002EE20E943B00B6
:100C9000272D322F22952F70205D0E943B003F7040
:100CA00020E3230F0E943B000895F894C09A25E8A2
:100CB0000E94B5000E94C500C0987894622EF894F6
:100CC000C09A23E80E94B5000E94C500C09878949D
:100CD000422EF894C09A21E80E94B5000E94C500F7
:100CE000C0987894522E262D322F2295237067FCBF
:100CF0002170205D0E943B003F7020E3230F0E9483
:100D00003B002AE30E943B00242D322F22952770BE
:100D1000205D0E943B003F7020E3230F0E943B00B8
:100D20002AE30E943B00252D322F22952770205D5B
:100D30000E943B003F7020E3230F0E943B0067FEB0
:100D4000089520E20E943B0021E465FC20E50E941A
:100D50003B002DE40E943B000895F894C09A25E8DA
:100D60000E94B5000E94C500C098789412D0022F4E
:100D7000F894C09A24E80E94B500202F0E94B50084
:100D8000C0987894292D05D0922E262D02D0622E5F
:100D9000089527FD14C0222381F0223159F0233118
:100DA0001CF4022F00681DC02251022F0F700A3060
:100DB00008F02650022F006A14C002E912C02F73F7
:100DC000022F223159F0223359F025FF0AC02E504C
:100DD000022F2F702A3008F00A5F03C0002701C0DD
:060DE00002E1202F08953E
:00000001FF
