:020000020000FC
:020000004DC1F0
:02003000F7C017
:0200280032C1E3
:02000400D0C06A
:02000800E2C054
:100060003090008037FCFCCF03D0009300800895CF
:1000700000D0000008952D3069F12A30A9F10091D7
:10008000008007FDFCCFF4DF209300C0089501E05D
:10009000E7CF02E0E5CF00E1E3CF04E1E1CF08E103
:1000A000DFCF0CE1DDCF0DE0DBCF0CE0D9CF0EE0F0
:1000B000D7CF0CE0D5CF05B7006C05BF01E0D0DF8E
:1000C00006E0CEDF0CE0CCDF08E3CADF0895022FA4
:1000D0000068C6CF0091008007FDFCCF0074006867
:1000E000C7DF0093008008952F9320E4F0DF2F9165
:1000F0000895FF91EF91EE1FFF1FC89531960020E4
:1001000019F0202DB8DFF9CFF795E795EF93FF931E
:10011000089503E007BBF894C09A2EE80E94B5004A
:1001200020E00E94B500C0987894F894C09A21E825
:100130000E94B5000E94C500C09878942F77322F96
:10014000F894C09A20E80E94B500232F0E94B500C1
:10015000C0987894F894C09A20E90E94B50026EAE5
:100160000E94B500C09878940895BA9A089427958B
:1001700008F4C29A08F0C298C19A0000000000007A
:10018000C1988894213099F70895BA9820E8C19AC7
:10019000B2990894B29B8894000000000000C198B6
:1001A0002795A8F708951FB6102F20B22094022D8E
:1001B0002926902F202241F020FE06C02EB401E017
:1001C00020262EBC04E0A026012F1FBE18951FB6C6
:1001D0001F920F933F9230B23094032D3926902F07
:1001E0003022C1F0789431FE15C0A2FE11C004E1A6
:1001F000B01680F4B3943B2CC0E6D0E0330C330C43
:10020000C30D08F4D395C992D992E992F99202C02C
:10021000BB2470D0F8943F900F911F901FBE18958B
:100220001FB6102F0C2D0F7009300C2D08F00A5F2F
:1002300003950A3908F000E0C02ECC2029F50D2DD9
:100240000F7009300D2D08F00A5F03950A3508F08C
:1002500000E0D02EDD20C1F40E2D0F7009300E2DE0
:1002600008F00A5F03950A3508F000E0E02EEE2062
:1002700059F40F2D0F7009300F2D08F00A5F039508
:100280000A3908F000E0F02E012F1FBE18951FB6A6
:1002900023B014E0212623B81FBE18950FEF0DBF21
:1002A0000FE00EBFAA240E9489000E945B000E94FA
:1002B0007A010E9463010E946F0100E107BF7894F8
:1002C000129A0C9477028824F894C09A25E80E9428
:1002D000B5000E94C500C0987894922E089500E061
:1002E0000FBD08E00EBD0CE90BBD00E40ABD02E045
:1002F00005BD0895BB24CC24DD24EE24FF240895FD
:10030000052D0F700930052D08F00A5F03950A3599
:1003100008F000E0502E0895052D0F700130052DD6
:100320000CF406500A9500300CF409E5502E08959F
:10033000042D0F700930042D08F00A5F03950A356B
:1003400008F000E0402E0895042D0F700130042DB8
:100350000CF406500A9500300CF409E5402E08957F
:10036000082D0F700930082D08F00A5F03950A3533
:1003700008F000E0802E0895082D0F700130082D40
:100380000CF406500A9500300CF409E5802E08950F
:10039000052D0F700930052D08F00A5F0395023313
:1003A00008F001E0502E0895052D0F700130052D45
:1003B0000CF406500A9501300CF401E3502E089518
:1003C000062D0F700930062D08F00A5F03950331E2
:1003D00008F001E0602E0895062D0F700130062D03
:1003E0000CF406500A9501300CF402E1602E0895D9
:1003F000072D0F700930072D08F00A5F03950A39A1
:1004000008F000E0702E0895072D0F700130072DC1
:100410000CF406500A9500300CF409E9702E08958A
:10042000042D0F700930042D08F00A5F0395083081
:1004300008F001E0402E0895442797FE03C04FEFD7
:100440000E94C206092D0F700930092D08F00A5FBD
:100450000395043208F000E0902E40FF08950E94BA
:10046000C2060895442797FE03C04FEF0E94C206BC
:10047000092D0F700130092D0CF406500A9500303B
:100480000CF403E2902E40FF08950E94C2060895E6
:10049000442767FE03C04FEF0E94BE06062D0F7073
:1004A0000930062D08F00A5F0395043208F000E0D9
:1004B000602E40FF08950E94BE060895442767FEFF
:1004C00003C04FEF0E94BE06062D0F700130062DAF
:1004D0000CF406500A9500300CF403E2602E40FF45
:1004E00008950E94BE06089502E0A02608950E9485
:1004F00047000E9449000E9449060E9474000E9421
:10050000E205A0FC05C0F5DD204F6666000005C0D1
:10051000F0DD20204F6E0000E9D10EE1302E01E029
:100520000F933F9200E3302E06E03A94F1F73A94AD
:100530000A95D9F73F900F913A9491F70A9581F770
:1005400000B20094002D0926902F002281F200FCB9
:100550000BC001FC0E94A20621E002FCA22605FCC1
:100560004EC106FC16C1C3CFF894C09A25E80E947C
:10057000B5000E94C500C0987894622EF894C09A85
:1005800023E80E94B5000E94C500C0987894422ECE
:10059000F894C09A21E80E94B5000E94C500C09856
:1005A0007894522E0E9447000E9449000E946706DC
:1005B0000E9474000E947900682B2F2D6D2B2F2D27
:1005C000732B2F2D3234647400000EE1302E01E0C5
:1005D0000F933F9200E3302E06E03A94F1F73A94FD
:1005E0000A95D9F73F900F913A9491F70A9581F7C0
:1005F00000B20094002D0926902F002299F201FCF0
:100600000E94A20602FC0E948C0103FC0E94800151
:1006100004FC0E94A40105FC0E94980106FC0E94B3
:100620005E0207FC0E94480200FEBCCFF894C09A0C
:1006300024E80E94B500262D0E94B500C098789449
:10064000F894C09A22E80E94B500242D0E94B500BB
:10065000C0987894F894C09A20E80E94B500252D9F
:100660000E94B500C0987894F894C09A2BE80E9434
:10067000B5000E94C500C0987894422EF894C09AA4
:1006800027E80E94B5000E94C500C0987894522EB9
:10069000F894C09A29E80E94B5000E94C500C0984D
:1006A0007894622EF894C09A2DE80E94B5000E94BA
:1006B000C500C0987894722E0E9447000E9449009D
:1006C0000E940A060E9474000E947900642B2F2D5C
:1006D0006D2B2F2D792B2F2D6477636B00000EE18E
:1006E000302E01E00F933F9200E3302E06E03A9463
:1006F000F1F73A940A95D9F73F900F913A9491F710
:100700000A9581F700B20094002D0926902F00224F
:1007100099F201FC0E94100202FC0E94040203FCF8
:100720000E94F80104FC0E94EC0105FC0E94E0011B
:1007300006FC0E94D40107FC0E94C80100FEBCCF49
:10074000F894C09A2AE80E94B500242D0E94B500B2
:10075000C0987894F894C09A26E80E94B500252D98
:100760000E94B500C0987894F894C09A28E80E9436
:10077000B500262D0E94B500C0987894F894C09AD0
:100780002CE80E94B500272D0E94B500C0987894EF
:10079000AECE03E009BF0E9447000E9449000E94BC
:1007A0007B050E9474000E9496050EE1302E01E048
:1007B0000F933F9200E3302E06E03A94F1F73A941B
:1007C0000A95D9F73F900F913A9491F70A9581F7DE
:1007D00000B20094002D0926902F0022E1F207FCC0
:1007E00009C005FC0AC002FC0E946A0503FC0E94C5
:1007F0005605D1CF00E009BF7ACE00E009BF0E94C4
:1008000047000E9449000E944A04A1FE05C00E94C0
:1008100079002067616D65000E9474000E94790074
:1008200020682B2F2D6D2B2F2D203132346A6575CA
:1008300000000EE1302E01E00F933F9200E3302ED6
:1008400006E03A94F1F73A940A95D9F73F900F9160
:100850003A9491F70A9581F700B20094002D092689
:10086000902F002261F200FC0E94740201FC0E94A1
:10087000A20602FC0E94BC0103FC0E94B00104FC21
:100880000E94320205FC0E941C0206FC82CF07FC7B
:100890002ECEB5CF292D322F422F2295237047FD22
:1008A0002170205D0E943B003F7020E3230F0E94D7
:1008B0003B002AE30E943B00282D322F229527700F
:1008C000205D0E943B003F7020E3230F0E943B000D
:1008D00047FF089520E20E943B0021E445FD20E50A
:1008E0000E943B002DE40E943B000895F894C09ABA
:1008F00025E80E94B5000E94C500C0987894622E39
:10090000F894C09A23E80E94B5000E94C500C098E0
:100910007894422EF894C09A21E80E94B5000E9473
:10092000C500C0987894522EA0FA56F4552041F490
:10093000691006C0481004C08827772741E018D006
:10094000089507B7006407BF0E9479002020202087
:1009500020414C41524D2121210000B20094002D34
:100960000926902F0022C9F307B70F7B07BF089510
:1009700007B7006407BF0E9447000E944900A1FE1C
:100980000C94A1044395483009F44427839504E06E
:10099000302E01E00F933F9200E3302E06E03A94B0
:1009A000F1F73A940A95D9F73F900F913A9491F75D
:1009B0000A9581F78F3F01F50E9447000E94490088
:1009C00098DB54727920416761696E0008EE302E21
:1009D00004E00F933F9200E3302E06E03A94F1F7E3
:1009E0003A940A95D9F73F900F913A9491F70A9566
:1009F00081F78827772768947030A1F49EF4542FEC
:100A000061E00E9447000E94490073DB50726573E9
:100A10007320427574746F6E200020E3250F0E94CE
:100A20003B00E8947130A1F49EF4542F61E00E94E1
:100A300047000E9449005DDB507265737320427568
:100A400074746F6E200020E3250F0E943B00E89431
:100A50007230A1F49EF4542F61E00E9447000E947E
:100A6000490047DB507265737320427574746F6E72
:100A7000200020E3250F0E943B00E894552319F045
:100A8000660F5A95FBCF00B20094002D0926902FD7
:100A9000002259F0061619F473958827689473306C
:100AA00021F407B70F7B07BF08956CCF8894D795C3
:100AB000C7958894D795C7956997CB1544F46A96DE
:100AC0008894CC1FDD1F8894CC1FDD1F0895C8E6D5
:100AD000D0E008958894D795C7958894D795C79501
:100AE000CB3108F4CB0DCA958894CC1FDD1F8894B8
:100AF000CC1FDD1F08954A905A906A907A902496F0
:100B0000BB2099F017D020E2B6DA3C2F88943795B5
:100B10003795395120E33A3018F023953A50FBCFFE
:100B2000AADA232F2F70205DA6DA08954F2C5E2CB1
:100B30006D2C7C2C242D322F22952F70205D0E944D
:100B40003B003F7020E3230F0E943B002AE30E94FA
:100B50003B00252D322F22952770205D0E943B00FF
:100B60003F7020E3230F0E943B002AE30E943B00DA
:100B7000262D322F22952770205D0E943B003F706A
:100B800020E3230F0E943B002AE30E943B00272D15
:100B9000322F22952F70205D0E943B003F7020E392
:100BA000230F0E943B0008954D4F4E0054554500C1
:100BB000574544005448550046524900534154009B
:100BC00053554E00F894C09A2BE80E94B5000E943D
:100BD000C500C0987894422EF894C09A27E80E94E5
:100BE000B5000E94C500C0987894522EF894C09A1F
:100BF00029E80E94B5000E94C500C0987894622E32
:100C0000F894C09A2DE80E94B5000E94C500C098D3
:100C10007894722E242D2770220F220FE4EAFBE035
:100C2000E20F2227F21F32E0C895202D0E943B00E0
:100C3000E3953A95CCF720E20E943B00252D322F18
:100C400022952370205D0E943B003F7020E3230F1C
:100C50000E943B002EE20E943B00262D322F22955F
:100C60002170205D0E943B003F7020E3230F0E9413
:100C70003B002EE20E943B00272D322F22952F7041
:100C8000205D0E943B003F7020E3230F0E943B0049
:100C90000895F894C09A25E80E94B5000E94C50006
:100CA000C0987894622EF894C09A23E80E94B50008
:100CB0000E94C500C0987894422EF894C09A21E80A
:100CC0000E94B5000E94C500C0987894522E262D2F
:100CD000322F422F2295237047FD2170205D0E9404
:100CE0003B003F7020E3230F0E943B002AE30E9459
:100CF0003B00242D322F22952770205D0E943B005F
:100D00003F7020E3230F0E943B002AE30E943B0038
:100D1000252D322F22952770205D0E943B003F70C9
:100D200020E3230F0E943B0047FF089520E20E942A
:100D30003B0021E445FD20E50E943B002DE40E949C
:100D40003B000895F894C09A25E80E94B5000E94DF
:100D5000C500C09878941AD0022FF894C09A24E85D
:100D60000E94B500202F0E94B500C0987894292DCC
:100D70000DD0922E262D0AD0622E0895262D06D053
:100D8000622E0895292D02D0922E089527FD14C0B9
:100D9000222381F0223159F023311CF4022F006804
:100DA0001DC02251022F0F700A3008F02650022F6A
:100DB000006A14C002E912C02F73022F223159F0C9
:100DC000223359F025FF0AC02E50022F2F702A30EF
:100DD00008F00A5F03C0002701C002E1202F089538
:00000001FF
